:0300000002004EAD
:100008000000E2FBEAF2802C0000E0FBEAF080242A
:10001800E6B50202EBF62200E2B50202EBF222009C
:10002800E0B50202EBF02230F6E0A88220F5D3EA30
:10003800C6F582228B822230F6E6A88220F5D98086
:01004800CFE8
:0300A7000200490B
:050049001200C780FE5B
:1000AA00AE82AF838E048F051EBEFF011FEC4D602A
:1000BA00067D78DDFE80ED22D2B7C2B7227F007EB0
:1000CA0001D290C293C2B753A0F0A290E433FDB418
:1000DA0001009293BE011FED701C2090198F040C31
:1000EA00740F5CFFE5A054F04FF5A0C007C00512DD
:0A00FA0000C2D005D0078D0680D0AB
:06007D00E478FFF6D8FD57
:10005B007900E94400601B7A00900108780175A0D3
:10006B0000E493F2A308B8000205A0D9F4DAF27504
:02007B00A0FFE4
:100083007800E84400600A790175A000E4F309D818
:10009300FC7800E84400600C7900900001E4F0A3D0
:0400A300D8FCD9FAB2
:0D004E00758107120104E58260030200497C
:0401040075820022DE
:00000001FF
